:100000000C9490000C949A000C949A000C949A0012
:100010000C949A000C949A000C949A000C949A00F8
:100020000C949A000C949A000C949A000C949A00E8
:100030000C949A000C949A000C949A000C949A00D8
:100040000C949A000C949A000C949A000C949A00C8
:100050000C949A000C949A000C949A000C949A00B8
:100060000C949A000C949A000C949A000C949A00A8
:100070000C949A000C949A000C949A000C949A0098
:100080000C949A000C949A000C949A000C949A0088
:100090000C949A000C949A000C949A000C949A0078
:1000A0000C949A000C949A000C949A000C949A0068
:1000B0000C949A000C949A000C949A000C949A0058
:1000C0000C949A000C949A000C949A000C949A0048
:1000D0000C949A000C949A000C949A000C949A0038
:1000E0000C949A000C949A000C949A000C949A0028
:1000F0000C949A000C949A000C949A000C949A0018
:100100000C949A000C949A000C949A000C949A0007
:100110000C949A000C949A000C949A000C949A00F7
:1001200011241FBECFEFD1E4DEBFCDBF0E949C00E3
:100130000C94CC000C9400008FEF8DB920E290E479
:1001400080E12EB9EFE3FCE93197F1F700C0000040
:100150001EB8EFE3FCE93197F1F700C000009EB94B
:10016000EFE3FCE93197F1F700C000001EB8EFE3C0
:10017000FCE93197F1F700C000008EB9EFE3FCE92C
:100180003197F1F700C000001EB8EFE3FCE93197AA
:0C019000F1F700C00000D5CFF894FFCFBD
:00000001FF
