:100000000C9497000C94A1000C94A1000C94A100F6
:100010000C94A1000C94A1000C94A1000C94A100DC
:100020000C94A1000C94A1000C94A1000C94A100CC
:100030000C94A1000C94A1000C94A1000C94A100BC
:100040000C94A1000C94A1000C94A1000C94A100AC
:100050000C94A1000C94A1000C94A1000C94A1009C
:100060000C94A1000C94A1000C94A1000C94A1008C
:100070000C94A1000C94A1000C94A1000C94A1007C
:100080000C94A1000C94A1000C94A1000C94A1006C
:100090000C94A1000C94A1000C94A1000C94A1005C
:1000A0000C94A1000C94A1000C94A1000C94A1004C
:1000B0000C94A1000C94A1000C94A1000C94A1003C
:1000C0000C94A1000C94A1000C94A1000C94A1002C
:1000D0000C94A1000C94A1000C94A1000C94A1001C
:1000E0000C94A1000C94A1000C94A1000C94A1000C
:1000F0000C94A1000C94A1000C94A1000C94A100FC
:100100000C94A1000C94A1000C94A1000C94A100EB
:100110000C94A1000C94A1000C94A1000C94A100DB
:10012000B100B300B500B700B900BB00BD00112499
:100130001FBECFEFD1E4DEBFCDBF0E94DA000C942A
:1001400020010C94000090917C00907E482F50E09C
:10015000FA013197E730F10588F4E057FF4F0C942E
:10016000170191600BC0926009C0936007C0946052
:1001700005C0956003C0966001C0976090937C00B5
:1001800020E180E090E030917A00306430937A0092
:1001900030917A0036FDFCCF409178005091790083
:1001A000840F951F215079F724E0969587952A951D
:1001B000E1F708956A98729A6F9A77986B9A739894
:1001C00080E480937C0087E880937A0080917B00B4
:1001D00085FDFCCFD0E0C0E080E00E94A3006299E2
:1001E0000EC08FE39CE90197F1F700C00000D11128
:1001F00002C0CF5F02C0D43618F4DF5F01C0D0E088
:10020000C13079F480E00E94A3008C3310F4739A1B
:1002100001C073988FE39CE90197F1F700C00000DB
:10022000DBCFC230C9F681E00E94A300D4CFEE0F2D
:10023000FF1F0024001C0BBE0790F691E02D0994CF
:04024000F894FFCF60
:00000001FF
