:100000000C9490000C94A2000C94A2000C94A200FA
:100010000C94A2000C94A2000C94A2000C94A200D8
:100020000C94A2000C94A2000C94A2000C94A200C8
:100030000C94A2000C94A2000C94A2000C94A200B8
:100040000C94A2000C94D2000C94A2000C94A20078
:100050000C94A2000C94A2000C94A2000C94A20098
:100060000C94A2000C94A2000C94A2000C94A20088
:100070000C94A2000C94A2000C94A2000C94A20078
:100080000C94A2000C94A2000C94A2000C94A20068
:100090000C94A2000C94A2000C94A2000C94A20058
:1000A0000C94A2000C94A2000C94A2000C94A20048
:1000B0000C94A2000C94A2000C94A2000C94A20038
:1000C0000C94A2000C94A2000C94A2000C94A20028
:1000D0000C94A2000C94A2000C94A2000C94A20018
:1000E0000C94A2000C94A2000C94A2000C94A20008
:1000F0000C94A2000C94A2000C94A2000C94A200F8
:100100000C94A2000C94A2000C94A2000C94A200E7
:100110000C94A2000C94A2000C94A2000C94A200D7
:1001200011241FBECFEFD1E4DEBFCDBF22E0A0E09F
:10013000B2E001C01D92A130B207E1F70E94E700D2
:100140000C942D010C94000083309105B1F034F42F
:100150008130910549F0029751F00895843091055E
:1001600079F0059791F008955C9A5B9A08955A9AF0
:100170005B9A2D9A5D9A2E9A08955A9A5B9A07C0B7
:100180002C9A2D9A5B9A5C9A08955A9A2C9A2D9AD9
:100190005C9A5D9A08952C982D985A985B985C9873
:1001A0005D9808951F920F920FB60F9211248F93AE
:1001B000809100028F5F8093000210928500109260
:1001C00084008F910F900FBE0F901F9018958FB7DE
:1001D0008F778FBF6E9A7698249A2C98259A2D98AF
:1001E000529A5A98539A5B98549A5C98559A5D988B
:1001F0001092800085E08093810089E09DE39093D8
:10020000890080938800109285001092840082E01B
:1002100080936F008FB780688FBF80910002853018
:10022000A1F4769AC5E0D0E0CE010E94A4002FEFA1
:1002300083ED90E3215080409040E1F700C0000042
:100240000E94CB00219781F7E8CF809100028A308D
:0E02500021F7769810920002E0CFF894FFCFCD
:00000001FF
