:100000000C9490000C949A000C949A000C949A0012
:100010000C949A000C949A000C949A000C949A00F8
:100020000C949A000C949A000C949A000C949A00E8
:100030000C949A000C949A000C949A000C949A00D8
:100040000C949A000C949A000C949A000C949A00C8
:100050000C949A000C949A000C949A000C949A00B8
:100060000C949A000C949A000C949A000C949A00A8
:100070000C949A000C949A000C949A000C949A0098
:100080000C949A000C949A000C949A000C949A0088
:100090000C949A000C949A000C949A000C949A0078
:1000A0000C949A000C949A000C949A000C949A0068
:1000B0000C949A000C949A000C949A000C949A0058
:1000C0000C949A000C949A000C949A000C949A0048
:1000D0000C949A000C949A000C949A000C949A0038
:1000E0000C949A000C949A000C949A000C949A0028
:1000F0000C949A000C949A000C949A000C949A0018
:100100000C949A000C949A000C949A000C949A0007
:100110000C949A000C949A000C949A000C949A00F7
:1001200011241FBECFEFD1E4DEBFCDBF0E949C00E3
:100130000C94D2000C940000689A6D987098759A8F
:1001400080E020E065992CC0EFE3FCE93197F1F7FE
:1001500000C00000811102C02F5F02C08A3090F7FA
:100160008F5F893079F741E050E030E04217530764
:1001700044F7709AFFEF61EE74E0F1506040704018
:10018000E1F700C0000070989FEFE1EEF4E09150BD
:10019000E040F040E1F700C000004F5F5F4FE6CF66
:0801A00080E0D0CFF894FFCFFE
:00000001FF
