:100000000C9490000C949A000C949A000C949A0012
:100010000C949A000C949A000C949A000C949A00F8
:100020000C949A000C949A000C949A000C949A00E8
:100030000C949A000C949A000C949A000C949A00D8
:100040000C949A000C949A000C949A000C949A00C8
:100050000C949A000C949A000C949A000C949A00B8
:100060000C949A000C949A000C949A000C949A00A8
:100070000C949A000C949A000C949A000C949A0098
:100080000C949A000C949A000C949A000C949A0088
:100090000C949A000C949A000C949A000C949A0078
:1000A0000C949A000C949A000C949A000C949A0068
:1000B0000C949A000C949A000C949A000C949A0058
:1000C0000C949A000C949A000C949A000C949A0048
:1000D0000C949A000C949A000C949A000C949A0038
:1000E0000C949A000C949A000C949A000C949A0028
:1000F0000C949A000C949A000C949A000C949A0018
:100100000C949A000C949A000C949A000C949A0007
:100110000C949A000C949A000C949A000C949A00F7
:1001200011241FBECFEFD1E4DEBFCDBF0E949C00E3
:100130000C94CC000C940000269A2E986D98759A19
:1001400080E020E0659926C0EFE3FCE93197F1F704
:1001500000C00000811102C02F5F02C0843690F7FA
:100160008F5F823379F741E050E0022E000C330BB1
:10017000421753076CF42E9AFFEF63ED70E3F150D2
:1001800060407040E1F700C000004F5F5F4FF0CF6C
:0C0190002E98D7CF80E0D6CFF894FFCF98
:00000001FF
